:020000040800F2
:1000000000800020990100088F080008C1700008D6
:100010008F0800088F0800088F0800080000000003
:10002000000000000000000000000000B1340008E3
:100030008F08000800000000C136000829370008BA
:100040008F0800088F0800088F0800088F08000834
:100050008F0800088F0800088F0800088F08000824
:100060008F0800088F0800088F0800088F08000814
:100070008F0800088F0800088F0800088F08000804
:100080008F0800088F0800088F0800080000000093
:100090000000000000000000000000008F080008C1
:1000A0008F0800088F0800088F0800088F080008D4
:1000B0008F0800088F0800088F0800088F080008C4
:1000C0008F0800088F0800088F0800088F080008B4
:1000D0008F0800088F0800088F0800080000000043
:1000E0008F0800088F0800088F0800080000000033
:1000F0000000000000000000000000008F08000861
:10010000000000008F0800088F0800088F08000812
:1001100000000000000000000000000000000000DF
:100120008F0800088F0800088F0800088F08000853
:100130008F08000800000000000000000000000020
:100140000000000000000000000000008F08000810
:100150008F0800088F0800088F0800088F08000823
:100160008F0800088F080008000000000000000051
:10017000000000000000000000000000000000007F
:10018000000000008F0800080000000000000000D0
:080190008F0800088F08000829
:100198004FF0FF34A64606F03EF9A6460E480F4932
:1001A8000022814201D004C0FBE70D480D490E4AE8
:1001B800814202D008CA08C0FAE70C484FF470011F
:1001C80002680A430260BFF34F8FBFF36F8F00B519
:1001D80000F0FDFA00DE0000080000209C3D002031
:1001E8000000002008000020207E000888ED00E0C4
:1001F80080B56F4682B007F8010C47F20011C0F6CF
:100208000001781E00F020F80090FFE7009800F049
:10021800010002B080BD80B56F4684B003F000FFD6
:10022800014601910390FFE70198C00720B9FFE755
:10023800002007F8050C03E0012007F8050CFFE78C
:1002480017F8050C04B080BD85B0019002910078C4
:10025800039009780491884204D0FFE700208DF8C4
:10026800030003E001208DF80300FFE79DF8030079
:1002780005B0704780B56F4688B00192059104902B
:1002880004980599039102909DF80810C80710B1C9
:10029800FFE704E0FEDE0398079008B080BD0198F0
:1002A8009DF8091007F8051C6946086047F2011017
:1002B800C0F6000047F22C13C0F600032B217A1F6A
:1002C80006F000F9FEDE80B56F4686B0059005F0B1
:1002D800C0F903900491FFE70499039800F0A9FB83
:1002E80001900291FFE70299019806B080BD80B5A0
:1002F8006F46D0B008A8349000F04EF91830079037
:1003080038900020379037984F904E904E983690FE
:1003180036A83590359800F004F901460798096821
:1003280039903A913B9003F06BFEFFE708A80F90D5
:100338000020C8BBFFE71A208DF8230000F02CF935
:100348000C3006900DF123010991099905912E9021
:100358002F913190419003F049FE01460598309164
:100368002B912B9A4B924A924A9A2A922D912D9927
:100378004D914C914C992C912AA928912CA92991FD
:100388002899299A00F0CCFD014606980968329010
:100398003391409003F034FE01200A9000200B9026
:1003A8000A9801280CD03BE047F2B010C0F60000D4
:1003B80047F2A012C0F60002212106F058F8FEDE2E
:1003C8000B980C9000F0E8F8043004900CA90D91FB
:1003D8000D9903912290239125903D9003F006FEFC
:1003E8000146039824911F911F9A47924692469A74
:1003F8001E922191219949914891489920911EA9CD
:100408001C9120A91D911C991D9A00F0D8FD014648
:1004180004980968269027913C9003F0F1FDFFE7C6
:1004280000F0BAF802900DF123010E910E99019196
:100438001690179119903F9003F0D8FD0146019846
:1004480018911391139A43924292429A12921591DB
:100458001599459144914499149112A9109114A9A0
:1004680011911099119A00F0D2FD0146029809687D
:100478001A901B913E9003F0C3FDFFE700F003F8CC
:10048800FFE750B080BD704788B000900290FFE74A
:10049800009904914FF40050059006910790086068
:1004A800FFE700980390FFE7009808B0704780B511
:1004B8006F468AB0019004901D200290002050B928
:1004C800FFE7029800F01F0201219140009110F00F
:1004D800E00F14D10BE047F24020C0F6000047F2CD
:1004E8002C22C0F600021C2105F0C1FFFEDE009898
:1004F8000199069107900891099008600BE047F26E
:100508007020C0F6000047F25C22C0F600022321EA
:1005180005F0ADFFFEDE01980590FFE701980AB0EF
:1005280080BD80B56F468AB0019004901D2002906E
:10053800002050B9FFE7029800F01F020121914006
:10054800009110F0E00F14D10BE047F24020C0F604
:10055800000047F22C22C0F600021C2105F087FF9C
:10056800FEDE0098019906910790089109900860AD
:100578000BE047F27020C0F6000047F25C22C0F69C
:100588000002232105F073FFFEDE01980590FFE7C6
:1005980001980AB080BDD4D482B002200090002017
:1005A80030B90099DFE801F0090E0F1011040412A8
:1005B8000020C4F20200019009E00020C4F2020009
:1005C800019004E01EE017E010E009E002E0019865
:1005D80002B0704741F60040C4F202000190F6E70D
:1005E80041F20000C4F202000190F0E740F600403A
:1005F800C4F202000190EAE740F60000C4F20200EB
:100608000190E4E740F20040C4F202000190DEE706
:1006180080B56F468AB0002003900490C8200590EA
:100628000498059900F07FFD01900291FFE7029878
:10063800019906910790FFE706A800F067FD099168
:100648000890FFE7089810B1FFE702E0FEDE0AB065
:1006580080BD0399481C02460092884203D6FFE7F2
:1006680000980390E8E747F2E020C0F6000047F260
:10067800CC22C0F600021C2105F0F9FEFEDE80B592
:100688006F468AB009900021039104900398049959
:1006980000F049FD01900291FFE702980199059148
:1006A8000690FFE705A800F031FD08910790FFE7E5
:1006B800079810B1FFE702E0FEDE0AB080BDFFF741
:1006C800A7FFEFE780B56F4682B00090019103F075
:1006D8009EFCFFE7FEE780B56F4682B0009001916F
:1006E80003F095FCFFE702B080BD80B56F4686B089
:1006F8000490059100F0C9F902900391FFE7039A6D
:10070800029947F2FC20C0F6000004F0EEFE0190CA
:10071800FFE7019806B080BD80B56F4688B00092AB
:100728000A460099019202460198029205920690A3
:10073800079100F0AAF903900491FFE7049B039A3C
:10074800029947F2FC20C0F6000004F0E3FEFFE740
:1007580008B080BD80B56F468CB0029303920A46FC
:1007680003990492024604980592089209900A9106
:100778000B9300F08AF906900791FFE7079B069A0A
:1007880005990298EC46CCF8000047F2FC20C0F628
:10079800000000F0C4FA0190FFE701980CB080BD9A
:1007A80080B56F4686B00490059100F06EF902900E
:1007B8000391FFE7039A029947F2FC20C0F6000074
:1007C80000F083FA0190FFE7019806B080BD80B57C
:1007D8006F4600F001F8FEDE80B56F4690B000F07D
:1007E8008CFB0390FFE7039800F0010047F2FC211F
:1007F800C0F6000100F0DFF8FFE703F013FBFFE7A6
:10080800FFF775FDFFE700F0FBFAFFE704A80021FA
:1008180000F0F9FAFFE707A803F056FFFFE747F2F1
:100828000C31C0F6000107A8052203F027FF02904B
:10083800FFE70298802103F039FF0190FFE7019854
:10084800022107F8111C17F8111C03F036FF00905D
:10085800FFE7009800F06CFC0F910E900E980F992E
:1008680006910590FFE70598069947F21432C0F6FD
:100878000002FFF7FFFCFFE707A800F0A6FAFFE772
:1008880003F0EAFFFEDE80B56F4684B04EF60450F2
:10089800CEF2000003F0AAFB0290FFE702986FF384
:1008A8005F2010380190002030B9FFE7019827F841
:1008B800020C00F00FF80BE047F24030C0F60000E1
:1008C80047F22432C0F60002212105F0D0FDFEDEF9
:1008D80004B080BD81B0ADF8020001B0704780B5AA
:1008E8006F468AB009900A20FFF7C9FEFFE700208B
:1008F8000390032004900398049900F014FC0190DD
:100908000291FFE70298019905910690FFE705A873
:1009180000F0FCFB08910790FFE7079810B1FFE78C
:10092800F5E7FEDEFEE780B56F4684B0039043F638
:100938007050C2F200000078C00718B9FFE700F055
:10094800E8FA07E0002007F8090CFFE717F8090C98
:1009580004B080BD012007F8090CF7E780B56F46A1
:1009680086B0FFF758FC0146029107F8020CFFE732
:1009780000F039F8FFE703F056FBFFE704A80390FF
:100988000398FFF7D0FF0146019107F8010CFFE734
:10099800029800F00100FFF72BFC0090FFE7009899
:1009A800C00728B9FFE7019800F0010006B080BD34
:1009B80000F01FF8F7E780B56F4684B0019107F89B
:1009C800050C17F8051CC80710B1FFE709E0FEDEA3
:1009D800019A47F26130C0F600002B2105F047FD6F
:1009E800FEDE04B080BD80B56F4603F012FBFFE762
:1009F80080BD80B56F4603F00EFBFFE780BD81B078
:100A08000090006801B0704780B56F4686B00091CD
:100A180001900390049100F01AF8014602910590A4
:100A2800FFE70099019800F026F8FFE7029806B062
:100A380080BD86B0029003910490059104980090BF
:100A480005980190FFE70199009806B0704788B0B3
:100A58000190039004980290FFE702A80590FFE731
:100A68000198006802900298009006900790FFE7AE
:100A7800009808B0704783B0009101460098019033
:100A880002910198086003B0704780B56F4688B03E
:100A980001910146019802910691079000F0A6F98C
:100AA8000390FFE70398029904910590049805992B
:100AB80008B080BD81B00090006801B0704780B573
:100AC8006F4682B00190406800F096F90090FFE709
:100AD800009802B080BD80B56F4684B00390FFF7E0
:100AE800EEFF0290FFE7029805F060FC0190FFE737
:100AF800019804B080BD86B00190029103900491E2
:100B08000844059005980090FFE7009806B07047E4
:100B180080B56F4686B00490059104A8FFF7CAFF18
:100B28000390FFE704A8FFF7CAFF0290FFE70299C6
:100B3800039800F05BFB0190FFE7019806B080BDC9
:100B480080B56F4686B00490059104A8FFF7B2FF00
:100B58000390FFE704A8FFF7B2FF0290FFE70299AE
:100B6800039800F049FB0190FFE7019806B080BDAB
:100B780080B56F4696B09C46CDF820C00A910B927E
:100B8800109007F8113C0AA8FFF794FF0990FFE7B7
:100B9800099828B9FFE70AA8FFF79DFF079047E0E3
:100BA800089809991391C00730B9FFE70A980B997B
:100BB800FFF7AEFF0E900BE00A980B99FFF7C0FF06
:100BC8000E90FFE7FFE70E9803F0C9FC069000E0DF
:100BD800F9E7069803F028FA0590FFE7059803F06F
:100BE80007FC0F90FFE70F98B0FA80F1490910B998
:100BF800FFE709E0FEDE09990F981490159003F0BD
:100C0800E3FC039004910DE047F2D830C0F60000F1
:100C180003F02FFC0D910C90FFE7FFE70C980D995E
:100C280016B080BD049803990C910D90FFE7F5E785
:100C38000798002103F0C8FC01900291FFE7029891
:100C480001990C910D90F2E780B56F4686B003903C
:100C5800049105920023FFF78BFF01900291FFE7B3
:100C68000299019806B080BD80B56F468CB0069099
:100C78000791FFF70AFF024602920A46039208907C
:100C88000991FFE7039A029947F2E830C0F600009D
:100C9800FFF7DAFF05910490FFE70498B0FA80F1B6
:100CA800490910B9FFE708E0FEDE049805990A90A3
:100CB8000B9103F0BDFC019004E00399029805F044
:100CC8006BFBFEDE01980CB080BD80B56F468AB024
:100CD800039005910692079005A8FFF7EBFE0146E1
:100CE80004910890FFE703980599069A04F0FDFB24
:100CF800014602910990FFE7029805F05DFB01901B
:100D0800FFE70198C00718B1FFE702980AB080BD55
:100D1800049A0298002103F081FEFFE7F5E780B509
:100D28006F4692B007910890D7F808C0CDF824C054
:100D38000B920C930D900E910BA8FFF7C0FE0A9032
:100D4800FFE70A990998FFF7A0FE024605920A46AE
:100D580006920F901091FFE7069A0599089804F0FB
:100D6800C4FB014604911190FFE7049805F024FBA9
:100D78000390FFE70398C00718B1FFE7049812B083
:100D880080BD0BA8FFF796FE0290FFE7099902982D
:100D980003F0E2F80190FFE7019A0499079802F03E
:100DA800D3FDFFE7079908980B9A0C9B04F0B2FB58
:100DB800FFE7E3E780B56F4682B0009101900098A5
:100DC80000F06AF8FFE702B080BD80B56F4682B0D8
:100DD800019003F095FDFFE702B080BD81B000905F
:100DE80001B0704781B0009001B0704782B00190A7
:100DF8000090009802B0704781B0009001B0704731
:100E080082B002B0704780B56F469EB003900490E0
:100E180007F8611CF1B9FFE703980790109011904B
:100E2800FFF7BAFB18300290159000201490149820
:100E38001B901A901A98139013A812901298FFF703
:100E480036FB01460298096816901791189003F02E
:100E5800D7F820E00398069008900990FFF79CFBCC
:100E6800183001900D9000200C900C981D901C904B
:100E78001C980B900BA80A900A98FFF705FB0146EF
:100E8800019809680E900F91199003F0B9F8FFE7DF
:100E9800FFE71EB080BDFCE780B56F4684B00390C5
:100EA800FFE74FF47A7004F065FD0190FFE70198C1
:100EB80000F08DF9FFE702A80121FFF7A4FFFFE783
:100EC8004FF47A7004F056FD0090FFE7009800F0A8
:100ED8007EF9FFE702A80021FFF795FFE1E783B05D
:100EE800009101460098019102900968026800206B
:100EF8009142B8BF012003B0704780B56F4682B0F9
:100F0800FFF72CFD0190FFE7019800F0010002B007
:100F180080BD43F67051C2F200010120087070478D
:100F280080B56F4692B00592069107900890099196
:100F38000A920C91FFE706980B9000680490FFE76F
:100F48000798007800F01F0203219140039110F0E8
:100F5800E00F0CD1FFE707980499039A9143019198
:100F680000780021029110F0E00F16D10BE047F253
:100F78006040C0F6000047F24C42C0F60002232150
:100F880005F075FAFEDE05990198029A10430E9154
:100F98000F901091119008600BE047F26040C0F686
:100FA800000047F28442C0F60002232105F05FFAF0
:100FB800FEDE05980D90FFE7059812B080BD90B051
:100FC8000392049105900690079108920A91FFE711
:100FD8000498099000680290FFE7FFE705980299D6
:100FE80021F400510091006840030190FFE7039944
:100FF8000098019A10430C910D900E910F90086083
:10100800FFE703980B90FFE7039810B0704780B58F
:101018006F4692B0059206910790089009910A923E
:101028000C91FFE706980B9000680490FFE707987B
:10103800007800F01F0203219140039110F0E00FA7
:101048000FD1FFE707980499039A9143019100781B
:1010580000F01F0201219140029110F0E00F16D11B
:101068000BE047F26040C0F6000047F29442C0F639
:101078000002232105F0FBF9FEDE05990198029A8A
:1010880010430E910F901091119008600BE047F2F9
:101098006040C0F6000047F2A442C0F600022321D7
:1010A80005F0E5F9FEDE05980D90FFE7059812B00A
:1010B80080BD80B56F468AB004900890011DFFF787
:1010C8000EFF0590FFE70598C00718B9FFE7002055
:1010D800069017E00498FFF792FC0390FFE7039847
:1010E8000121FFF708FD014602910990FFE70299E7
:1010F8000498FFF789FC0190FFE701980790012009
:101108000690FFE7069807990AB080BD80B56F463C
:1011180084B00390FFF7CDFF01900291FFE7029999
:10112800019804B080BD82B00090019102B0704770
:1011380080B56F468AB001900690FFF7C4F8029018
:101148000391FFE703990298019A937B928900F033
:101158000BF8099108900898099905910490FFE700
:10116800049805990AB080BD80B56F4690B0039188
:1011780004909C46CDF814C09446CDF818C00A9047
:101188000B91ADF8302007F80D3C00200121FFF746
:101198006BFD0790FFE7039B049A07980699DDF813
:1011A80014E0EC46CCF804E0CCF8001047F2B44167
:1011B800C0F6000103F0A3FA0F910E900E980F9954
:1011C80009910890FFE70898099910B080BD80B58B
:1011D8006F4682B0019001A804F0F5FB0090FFE78C
:1011E800009802F034FBFFE702B080BDFFF77DBA3C
:1011F800FFF792BAFFF7AEBAFFF7D2BA05F0D1B847
:1012080080B586B000AF78600023FB6000F0B8FFBF
:10121800514B1B68002B01D100F004F94F4B1A68A1
:101228007B681340002B40F085807B68002B16D02C
:1012380008227B6813447B607B6803F00703002B5C
:101248000DD07B6823F0070308337B607B6803F0CD
:101258000703002B03D04249972004F0F2FF7B6874
:10126800002B67D03F4B1B687A689A4262D83E4B86
:101278003B613D4B1B687B6104E07B693B617B699B
:101288001B687B617B695B687A689A4203D97B69D2
:101298001B68002BF1D1304B1B687A699A4249D000
:1012A8003B691B6808221344FB607B691A683B6929
:1012B8001A607B695A687B68D21A08235B009A42D5
:1012C80018D97A697B681344BB60BB6803F00703CD
:1012D800002B03D02249C42004F0B3FF7B695A686D
:1012E8007B68D21ABB685A607B697A685A60B868AA
:1012F80000F0FAF81B4B1A687B695B68D31A194A25
:101308001360184B1A68194B1B689A4203D2154B85
:101318001B68164A13607B695A68104B1B681A438E
:101328007B695A607B6900221A60114B1B68013384
:101338000F4A136000F032FFFB6803F00703002B2D
:1013480004D0074940F2051004F07BFFFB681846FB
:101358001837BD4680BD00BF103C0020243C00204B
:10136800C4740008143C0020083C0020183C0020ED
:101378001C3C002080B584B000AF78607B68FB60BF
:101388007B68002B41D008235B42FA681344FB605A
:10139800FB68BB60BB685A681E4B1B681340002B78
:1013A80004D11D4940F2191004F04BFFBB681B68BB
:1013B800002B04D018494FF48D7004F042FFBB682D
:1013C8005A68144B1B681340002B1ED0BB681B685F
:1013D800002B1AD1BB685A680E4B1B68DB431A40B6
:1013E800BB685A6000F0CCFEBB685A680B4B1B68A0
:1013F80013440A4A1360B86800F076F8084B1B6873
:101408000133074A136000F0C9FE00BF1037BD461C
:1014180080BD00BF243C0020C4740008143C002098
:10142800203C002080B485B000AF4FF47053BB60FF
:10143800274BFB60FB6803F00703002B0CD0FB680D
:101448000733FB60FB6823F00703FB60BA68FB689F
:10145800D31A1F4A1344BB60FB687B601D4A7B6834
:1014680013601C4B00225A607B68BA681344FB6007
:101478000822FB689B1AFB60FB6823F00703FB60EC
:10148800FB68154A1360144B1B6800225A60124B04
:101498001B6800221A607B683B603B68FA68D21AB6
:1014A8003B685A600C4B1A683B681A603B685B687B
:1014B8000A4A13603B685B68094A1360094B4FF09E
:1014C80000421A6000BF1437BD465DF8047B7047C0
:1014D80008000020083C0020103C0020183C002098
:1014E800143C0020243C002080B485B000AF786014
:1014F800284BFB6002E0FB681B68FB60FB681B680D
:101508007A689A42F7D8FB68BB60FB685B68BA6880
:1015180013447A689A4208D1FB685A687B685B680A
:101528001A44FB685A60FB687B607B68BB607B6819
:101538005B68BA681A44FB681B689A4218D1FB6852
:101548001A68154B1B689A420DD07B685A68FB686D
:101558001B685B681A447B685A60FB681B681A68DA
:101568007B681A6008E00C4B1A687B681A6003E015
:10157800FB681A687B681A60FA687B689A4202D02E
:10158800FB687A681A6000BF1437BD465DF8047BB3
:10159800704700BF083C0020103C002080B483B096
:1015A80000AF78607B6803F108027B685A607B684B
:1015B8004FF0FF329A607B6803F108027B68DA60BB
:1015C8007B6803F108027B681A617B6800221A6055
:1015D80000BF0C37BD465DF8047B704780B483B00C
:1015E80000AF78607B6800221A6100BF0C37BD46E7
:1015F8005DF8047B704780B485B000AF78603960CF
:101608007B685B68FB603B68FA685A60FB689A68AD
:101618003B689A60FB689B683A685A60FB683A685E
:101628009A603B687A681A617B681B685A1C7B68F9
:101638001A6000BF1437BD465DF8047B704780B45C
:1016480085B000AF786039603B681B68BB60BB68D9
:10165800B3F1FF3F03D17B681B69FB600CE07B683B
:101668000833FB6002E0FB685B68FB60FB685B6853
:101678001B68BA689A42F6D2FB685A683B685A6097
:101688003B685B683A689A603B68FA689A60FB68EE
:101698003A685A603B687A681A617B681B685A1C0A
:1016A8007B681A6000BF1437BD465DF8047B70473D
:1016B80080B485B000AF78607B681B69FB607B688D
:1016C8005B687A6892689A607B689B687A685268F7
:1016D8005A60FB685B687A689A4203D17B689A68AB
:1016E800FB685A607B6800221A61FB681B685A1EF7
:1016F800FB681A60FB681B6818461437BD465DF81E
:10170800047B704780B584B002AF00237B6000F093
:10171800BFFA0E4B1B68002B0AD00D4B0193012317
:1017280000930023C8220B490B4800F0E7FA7860C1
:101738007B68002B04D1094940F2131004F081FDA5
:101748007B6818460837BD4680BD00BF583C00205E
:101758005C3C0020F074000891180008F874000838
:1017680080B588B000AFF860B9607A603B6000234C
:10177800FB61FB68002B04D11C494FF4C17004F0D5
:1017880060FD1B4B1B68002B2AD0BB683B617B6844
:101798007B61FB68BB61BB68052B18DC01F0BEF8F8
:1017A8000346022B09D1124B186807F110010023D8
:1017B800BA6A01F06DFAF86112E00D4B186807F18A
:1017C80010010023002201F063FAF86108E0084BD9
:1017D800186807F1100100233A6801F041FBF8612D
:1017E800FB6918462037BD4680BD00BFF874000865
:1017F800583C002080B586B002AF78603960204B35
:101808001B68DB68DB68FB60FB6804331846FFF77E
:101818004FFFFB6893F8283003F00403002B1DD01A
:10182800FB689A697B68D1187B683A68F86800F0A9
:10183800CFF80346002B1AD00023009300237A68C0
:101848000021F868FFF78CFFB860BB68002B0ED149
:101858000C4940F2112004F0F4FC08E0FB6893F80E
:10186800283023F00103DAB2FB6883F82820FB68EC
:101878001B6AF868984700BF1037BD4680BD00BF97
:10188800503C0020F874000880B584B000AF786040
:1018980007F10803184600F057F8F860BB681946C6
:1018A800F86800F003F800F0D5F8F1E780B584B0E7
:1018B80000AF7860396000F063FC07F10803184650
:1018C80000F066F8F860BB68002B30D13B68002B4D
:1018D8000AD17A68FB689A4206D800F05FFCF9687A
:1018E8007868FFF787FF24E03B68002B08D0134B8C
:1018F8001B681B68002B01D1012300E000233B601B
:101908000F4B18687A68FB68D31A3A68194601F0D1
:101918003DFD00F043FC0346002B0AD1094B4FF074
:1019280080521A60BFF34F8FBFF36F8F01E000F052
:1019380035FC00BF1037BD4680BD00BF543C0020B9
:10194800583C002004ED00E080B485B000AF78601A
:101958000E4B1B681B68002B01D1012200E00022FE
:101968007B681A607B681B68002B05D1074B1B68D6
:10197800DB681B68FB6001E00023FB60FB6818461E
:101988001437BD465DF8047B704700BF503C00200B
:1019980080B584B000AF786000F098FCF8600B4B1D
:1019A8001B68FA689A4205D200F012F97B68012296
:1019B8001A6002E07B6800221A60044AFB68136020
:1019C800FB6818461037BD4680BD00BF603C00204C
:1019D80080B586B000AFF860B9607A603B600023DC
:1019E8007B61FB68BA685A60FB68FA681A61BA6872
:1019F8007B689A4212D87A683B68D21AFB689B695E
:101A08009A4202D301237B611BE0104B1A68FB68E2
:101A1800043319461046FFF712FE12E07A683B6855
:101A28009A4206D2BA683B689A4202D301237B6184
:101A380007E0074B1A68FB68043319461046FFF79E
:101A4800FEFD7B6918461837BD4680BD543C002012
:101A5800503C002080B58AB002AFA3E0BB68002BE1
:101A6800C0F29F803B69FB61FB695B69002B04D076
:101A7800FB6904331846FFF71BFE3B1D1846FFF7AA
:101A880087FFB861BB68092B00F28C8001A252F86D
:101A980023F000BFC51A0008C51A0008C51A0008B7
:101AA8002F1B0008431B0008811B0008C51A0008EB
:101AB800C51A00082F1B0008431B0008FB6993F890
:101AC800283043F00103DAB2FB6983F82820FA686A
:101AD800FB699B69D118FB68BA69F869FFF778FF59
:101AE8000346002B5ED0FB691B6AF8699847FB69BF
:101AF80093F8283003F00403002B53D0FA68FB69ED
:101B08009B691A440023009300230021F869FFF71A
:101B180027FE78617B69002B44D12B494FF44B7029
:101B280004F08FFB3EE0FB6993F8283023F00103B3
:101B3800DAB2FB6983F8282034E0FB6993F828308F
:101B480043F00103DAB2FB6983F82820FA68FB69DD
:101B58009A61FB699B69002B04D11B494FF45170B2
:101B680004F06FFBFB699A69BB69D118BB69BA6954
:101B7800F869FFF72DFF15E0FB6993F8283003F0AB
:101B88000203002B03D1F869FFF7F4FB0AE0FB69B5
:101B980093F8283023F00103DAB2FB6983F8282090
:101BA80000E000BF094B1B6807F108010022184636
:101BB80001F0E2F90346002B7FF450AF00BF00BFED
:101BC8002037BD4680BD00BFF8740008583C00208F
:101BD80080B588B002AF42E02A4B1B68DB681B68FF
:101BE8003B61284B1B68DB68DB68FB60FB680433E0
:101BF8001846FFF75DFDFB681B6AF8689847FB68A5
:101C080093F8283003F00403002B28D0FB689B6965
:101C18003A691344BB60BA683B699A420ED9FB68BB
:101C2800BA685A60FB68FA681A61164B1A68FB684A
:101C3800043319461046FFF702FD10E00023009315
:101C480000233A690021F868FFF78AFD78607B680D
:101C5800002B04D10C4940F29D3004F0F2FA094BF4
:101C68001B681B68002BB7D1064B1B687B61074BB1
:101C78001B68044A1360054A7B69136000BF183764
:101C8800BD4680BD503C0020F8740008543C00203C
:101C980080B500AF01F0C2FC124B1B68002B1DD1B0
:101CA8001148FFF77BFC1148FFF778FC104B0E4AF0
:101CB8001A60104B0D4A1A6000220C210A2000F00D
:101CC80091FF0346074A1360064B1B68002B05D09B
:101CD800044B1B680849184601F02EFB01F0C8FCAC
:101CE80000BF80BD583C0020283C00203C3C002020
:101CF800503C0020543C00201475000880B58CB07E
:101D080004AFF860B9603B601346FB80FB889B001A
:101D18001846FFF775FA78617B69002B0ED05C20B6
:101D2800FFF76EFAF861FB69002B03D0FB697A694B
:101D38001A6305E07869FFF71DFB01E00023FB61EA
:101D4800FB69002B13D0FA8800230393FB690293E5
:101D5800FB6A0193BB6A00933B68B968F86800F0B6
:101D68000FF8F86900F098F80123BB6102E04FF022
:101D7800FF33BB61BB6918462037BD4680BDD4D44C
:101D880080B586B000AFF860B9607A603B60BB6A26
:101D9800186B7B689B001A46A52105F03FF9BB6AC2
:101DA8001A6B7B6803F18043013B9B0013443B6142
:101DB8003B6923F007033B613B6903F00703002BF2
:101DC80004D034494FF4597004F03BFABB68002B37
:101DD8001FD000237B6112E0BA687B69134419782D
:101DE800BA6A7B69134434330A461A70BA687B6945
:101DF80013441B78002B06D07B6901337B617B6918
:101E08000F2BE9D900E000BFBB6A002283F843200A
:101E180003E0BB6A002283F834203B6A042B01D913
:101E280004233B62BB6A3A6ADA62BB6A3A6ADA64DA
:101E3800BB6A00221A65BB6A04331846FFF7CEFB5B
:101E4800BB6A18331846FFF7C9FBBB6ABA6A1A613E
:101E58003B6AC3F10502BB6A9A61BB6ABA6A5A62F5
:101E6800BB6A00225A65BB6A002283F858203A6888
:101E7800F968386901F0BEFA0246BB6A1A607B6AE3
:101E8800002B02D07B6ABA6A1A6000BF1837BD46B9
:101E980080BD00BF1C75000880B582B000AF7860B7
:101EA80001F0BCFB2C4B1B6801332B4A13602B4BF6
:101EB8001B68002B09D1294A7B681360264B1B68D5
:101EC800012B10D100F07CFC0DE0254B1B68002B8A
:101ED80009D1224B1B68DA6A7B68DB6A9A4202D80E
:101EE8001E4A7B6813601F4B1B6801331D4A136031
:101EF8001C4B1A687B685A647B68DB6A01229A402B
:101F0800194B1B681343184A13607B68DA6A134637
:101F18009B0013449B00154A1A447B6804331946F6
:101F28001046FFF768FB01F0A3FB0D4B1B68002B65
:101F38000ED00A4B1B68DA6A7B68DB6A9A4207D2C2
:101F48000B4B4FF080521A60BFF34F8FBFF36F8F68
:101F580000BF0837BD4680BD3C3D0020643C0020E2
:101F6800483D0020583D0020443D0020683C0020AA
:101F780004ED00E080B584B000AF786001F04EFB5E
:101F88007B68002B02D1364B1B6800E07B68FB6046
:101F9800FB6804331846FFF78BFB0346002B15D16B
:101FA800FB68DA6A2F4913469B0013449B000B44D5
:101FB8001B68002B0AD1FB68DB6A012202FA03F3D3
:101FC800DA43294B1B681340274A1360FB689B6A56
:101FD800002B04D0FB6818331846FFF769FB234B26
:101FE8001B680133214A13601D4B1B68FA689A422B
:101FF8000BD1FB68043319461D48FFF7FCFA1D4B4B
:102008001B6801331B4A136009E01B4B1B68013B2B
:10201800194A1360F86800F041FC00F04FFC01F029
:1020280027FB164B1B68002B15D00D4B1B68FA6855
:102038009A4210D1124B1B68002B04D0114940F270
:10204800DA4004F0FEF8104B4FF080521A60BFF3EC
:102058004F8FBFF36F8F00BF1037BD4680BD00BFE5
:10206800643C0020683C0020443D0020583D00208E
:10207800103D0020243D00203C3D0020483D00202C
:10208800643D00201C75000804ED00E080B584B0B4
:1020980000AF78600023FB607B68002B11D0104BE9
:1020A8001B68002B04D00F4940F2445004F0C9F8D3
:1020B80000F066F80021786800F0CAFC00F06EF8BD
:1020C800F860FB68002B07D1074B4FF080521A606D
:1020D800BFF34F8FBFF36F8F00BF1037BD4680BD72
:1020E800643D00201C75000804ED00E080B584B054
:1020F80002AF1C4B019300230093002350221A497E
:102108001A48FFF7FBFD78607B68012B02D1FFF7C7
:10211800F9FA78607B68012B16D14FF0500383F3EE
:102128001188BFF36F8FBFF34F8F3B6000BF104B19
:102138004FF0FF321A600F4B01221A600E4B00223B
:102148001A6001F0D9F908E07B68B3F1FF3F04D1C8
:102158000A4940F62A0004F074F800BF0837BD4663
:1021680080BD00BF603D0020347500089927000835
:102178005C3D0020483D0020403D00201C750008C3
:1021880080B400AF044B1B680133034A136000BFDF
:10219800BD465DF8047B7047643D002080B584B07F
:1021A80000AF0023FB600023BB603E4B1B68002B85
:1021B80004D13D4940F6990004F043F801F02EFAA5
:1021C800384B1B68013B374A1360364B1B68002BA2
:1021D80061D1364B1B68002B5DD02EE0344BDB6899
:1021E800DB68FB60FB6818331846FFF761FAFB6889
:1021F80004331846FFF75CFAFB68DB6A01229A4051
:102208002C4B1B6813432B4A1360FB68DA6A13468E
:102218009B0013449B00284A1A44FB680433194660
:102228001046FFF7E8F9FB68DA6A244B1B68DB6A9B
:102238009A4202D3224B01221A601D4B1B68002BC5
:10224800CCD1FB68002B01D000F038FB1D4B1B687C
:102258007B607B68002B10D000F048F80346002B09
:1022680002D0174B01221A607B68013B7B607B68B8
:10227800002BF1D1134B00221A60114B1B68002B65
:1022880009D00123BB60104B4FF080521A60BFF396
:102298004F8FBFF36F8F01F0EBF9BB68184610370B
:1022A800BD4680BD643D00201C7500083C3D0020F3
:1022B800FC3C0020443D0020683C0020643C002099
:1022C800503D00204C3D002004ED00E080B483B078
:1022D80000AF054B1B687B607B6818460C37BD4612
:1022E8005DF8047B704700BF403D002080B586B094
:1022F80000AF00237B614B4B1B68002B40F08880AC
:10230800494B1B6801333B61474A3B6913603B6992
:10231800002B1AD1454B1B681B68002B04D044497D
:1023280040F6A92003F08DFF404B1B68FB60414B32
:102338001B683E4A13603F4AFB6813603E4B1B68AC
:1023480001333D4A136000F0B9FA3C4B1B683A6907
:102358009A4248D3354B1B681B68002B04D1374B76
:102368004FF0FF321A603EE0304B1B68DB68DB68D9
:10237800BB60BB685B687B603A697B689A4203D242
:102388002E4A7B6813602EE0BB6804331846FFF7BB
:102398008FF9BB689B6A002B04D0BB6818331846BA
:1023A800FFF786F9BB68DB6A01229A40244B1B6859
:1023B8001343234A1360BB68DA6A13469B0013442D
:1023C8009B00204A1A44BB68043319461046FFF79D
:1023D80012F9BB68DA6A1C4B1B68DB6A9A42B9D3EC
:1023E80001237B61B6E7184B1B68DA6A1549134667
:1023F8009B0013449B000B441B68012B01D901234C
:102408007B61124B1B68002B07D001237B6104E022
:102418000F4B1B6801330E4A13607B691846183747
:10242800BD4680BD643D0020403D0020F43C0020B6
:102438001C750008F83C0020543D00205C3D00203D
:10244800443D0020683C0020643C0020503D0020B2
:102458004C3D002080B584B000AF374B1B68002B83
:1024680003D0364B01221A6062E0344B00221A6016
:10247800334B1B681B6BBB604FF0A5337B60BB689D
:102488001B687A689A4211D1BB6804331B687A6862
:102498009A420BD1BB6808331B687A689A4205D107
:1024A800BB680C331B687A689A4208D0244B1A68B8
:1024B800234B1B68343319461046FEF70CF9214BA1
:1024C8001B68FB600AE0FB68002B04D11E4940F63C
:1024D800E83003F0B6FEFB68013BFB601B49FA6875
:1024E80013469B0013449B000B441B68002BEAD047
:1024F800FA6813469B0013449B00144A13443B603C
:102508003B685B685A683B685A603B685A683B6836
:1025180008339A4204D13B685B685A683B685A6042
:102528003B685B68DB68064A1360064AFB68136011
:1025380000BF1037BD4680BD643D0020503D0020DF
:10254800643C0020443D00201C750008683C0020C5
:1025580080B582B000AF786039607B68002B04D109
:10256800094940F6094003F06CFE084B1B68183314
:1025780019467868FFF763F80121386800F068FAAF
:1025880000BF0837BD4680BD1C750008643C0020AC
:1025980080B584B000AFF860B9607A60FB68002B42
:1025A80004D10D4940F6344003F04BFE0B4B1B6839
:1025B80018331946F868FFF71EF87B68002B02D01D
:1025C8004FF0FF33BB607968B86800F041FA00BF8C
:1025D8001037BD4680BD00BF1C750008643C002054
:1025E80080B584B000AF78607B68DB68DB68BB606F
:1025F800BB68002B04D1224940F6644003F021FE59
:10260800BB6818331846FFF753F81E4B1B68002B9E
:102618001CD1BB6804331846FFF74AF8BB68DB6A6D
:1026280001229A40184B1B681343174A1360BB6872
:10263800DA6A13469B0013449B00144A1A44BB6889
:10264800043319461046FEF7D6FF05E0BB68183379
:1026580019460F48FEF7CFFFBB68DA6A0D4B1B68B7
:10266800DB6A9A4205D90123FB600B4B01221A60F1
:1026780001E00023FB60FB6818461037BD4680BDAB
:102688001C750008643D0020443D0020683C002083
:10269800FC3C0020643C0020503D002080B483B006
:1026A80000AF7860064B1A687B681A60054B1A6899
:1026B8007B685A6000BF0C37BD465DF8047B7047E5
:1026C800543D0020403D002080B586B000AF7860C2
:1026D80039607B68002B04D1244940F6DD4003F0C3
:1026E800B0FD3B68002B04D1204940F6DE4003F0E2
:1026F800A8FD00F093FF1E4B1B683B617B685B687D
:102708003A69D31AFB603B681B68B3F1FF3F02D1FB
:1027180000237B6123E07B681A68164B1B689A428A
:1027280007D07B685B683A699A4202D301237B61D0
:1027380015E03B681B68FA689A420BD23B681A6836
:10274800FB68D21A3B681A607868FFF7A7FF002376
:102758007B6104E03B6800221A6001237B6100F082
:1027680087FF7B6918461837BD4680BD1C75000871
:10277800403D0020543D002080B400AF034B0122AF
:102788001A6000BFBD465DF8047B7047503D0020CD
:1027980080B582B000AF786000F052F8064B1B6835
:1027A800012BF9D9054B4FF080521A60BFF34F8FB8
:1027B800BFF36F8FF0E700BF683C002004ED00E036
:1027C80080B582B000AF00237B600CE07A681346C6
:1027D8009B0013449B00124A13441846FEF7DEFE82
:1027E8007B6801337B607B68042BEFD90D48FEF7CB
:1027F800D5FE0D48FEF7D2FE0C48FEF7CFFE0C487A
:10280800FEF7CCFE0B48FEF7C9FE0B4B054A1A60D3
:102818000A4B054A1A6000BF0837BD4680BD00BF95
:10282800683C0020CC3C0020E03C0020FC3C002020
:10283800103D0020283D0020F43C0020F83C0020FA
:1028480080B582B000AF19E000F0E8FE104BDB68FD
:10285800DB687B607B6804331846FEF729FF0D4B65
:102868001B68013B0B4A13600B4B1B68013B0A4A70
:10287800136000F0FDFE786800F010F8064B1B6846
:10288800002BE1D100BF00BF0837BD4680BD00BFA7
:10289800103D00203C3D0020243D002080B582B042
:1028A80000AF78607B681B6B1846FEF763FD78689D
:1028B800FEF760FD00BF0837BD4680BD80B483B019
:1028C80000AF0C4B1B681B68002B04D10A4B4FF060
:1028D800FF321A6008E0074B1B68DB68DB687B6027
:1028E8007B685B68044A136000BF0C37BD465DF81F
:1028F800047B7047F43C00205C3D002080B483B02A
:1029080000AF054B1B687B607B6818460C37BD46DB
:102918005DF8047B704700BF643C002080B483B03E
:1029280000AF0B4B1B68002B02D101237B6008E032
:10293800084B1B68002B02D102237B6001E00023B7
:102948007B607B6818460C37BD465DF8047B704792
:10295800483D0020643D002080B584B000AF786019
:102968007B68BB600023FB607B68002B62D0344B24
:102978001B68BA689A4204D0324941F2220003F037
:1029880060FCBB681B6D002B04D12E4941F223006B
:1029980003F057FCBB681B6D5A1EBB681A65BB6801
:1029A800DA6ABB68DB6C9A4244D0BB681B6D002BAB
:1029B80040D1BB6804331846FEF77AFE0346002B65
:1029C80015D1BB68DA6A204913469B0013449B0063
:1029D8000B441B68002B0AD1BB68DB6A012202FA90
:1029E80003F3DA43194B1B681340184A1360BB689A
:1029F800DA6CBB68DA62BB68DB6AC3F10502BB68E4
:102A08009A61BB68DB6A01229A40104B1B6813432A
:102A18000E4A1360BB68DA6A13469B0013449B0096
:102A2800094A1A44BB68043319461046FEF7E3FD09
:102A38000123FB60FB6818461037BD4680BD00BF08
:102A4800643C00201C750008683C0020443D0020C0
:102A580080B584B000AF78603960294B1B68FB6093
:102A6800284B1B6804331846FEF722FE0346002B4A
:102A78000BD1244B1B68DB6A012202FA03F3DA4309
:102A8800214B1B681340204A13607B68B3F1FF3F5A
:102A98000AD13B68002B07D01A4B1B680433194630
:102AA8001A48FEF7A8FD26E0FA687B681344BB6065
:102AB800144B1B68BA685A60BA68FB689A4209D214
:102AC800134B1A680F4B1B68043319461046FEF760
:102AD800B6FD10E00F4B1A680A4B1B680433194601
:102AE8001046FEF7ACFD0C4B1B68BA689A4202D23E
:102AF800094ABB68136000BF1037BD4680BD00BFE0
:102B0800403D0020643C0020443D0020283D00203A
:102B1800F83C0020F43C00205C3D002080B584B0E7
:102B280000AF786039607B68FB60FB68002B04D1DC
:102B38002A4940F2031003F084FB00F06FFDFB68A4
:102B48001A68FB68DB6BF968096C01FB03F31A442C
:102B5800FB689A60FB6800229A63FB681A68FB6846
:102B68005A60FB681A68FB68DB6B013BF968096C03
:102B780001FB03F31A44FB68DA60FB68FF2283F861
:102B88004420FB68FF2283F845203B68002B14D1C2
:102B9800FB681B69002B1AD0FB6810331846FFF737
:102BA8001FFD0346002B12D00D4B4FF080521A60C8
:102BB800BFF34F8FBFF36F8F09E0FB6810331846E0
:102BC800FEF7ECFCFB6824331846FEF7E7FC00F040
:102BD8004FFD012318461037BD4680BD4C750008CF
:102BE80004ED00E080B58AB002AFF860B960134622
:102BF800FB71FB68002B04D112494FF4BB7003F042
:102C080020FBFB68BA6802FB03F3FB61FB695033E6
:102C18001846FEF7F5FAB861BB69002B0DD0BB6901
:102C28007B617B6950337B61FA79BB6900931346FA
:102C38007A69B968F86800F007F8BB691846203760
:102C4800BD4680BD4C75000880B584B000AFF86003
:102C5800B9607A60FB70BB68002B03D1BB69BA69A5
:102C68001A6002E0BB697A681A60BB69FA68DA63BD
:102C7800BB69BA681A640121B869FFF74FFFBB69DD
:102C8800FA7883F84C2000BF1037BD4680BDD4D4F5
:102C980080B58AB000AFF860B9607A603B60002305
:102CA8007B62FB683B623B6A002B04D16A4940F2B5
:102CB800EA2003F0C6FABB68002B03D13B6A1B6C01
:102CC800002B01D1012300E00023002B04D162492D
:102CD80040F2EB2003F0B5FA3B68022B03D13B6AC4
:102CE800DB6B012B01D1012300E00023002B04D171
:102CF80059494FF43B7003F0A4FAFFF70FFE03465F
:102D0800002B02D17B68002B01D1012300E00023B6
:102D1800002B04D1504940F2EF2003F092FA00F062
:102D28007DFC3B6A9A6B3B6ADB6B9A4202D33B6839
:102D3800022B29D13A68B968386A00F0EDF9F861D0
:102D48003B6A5B6A002B10D03B6A24331846FFF7B6
:102D580047FC0346002B13D0404B4FF080521A60BB
:102D6800BFF34F8FBFF36F8F0AE0FB69002B07D0CB
:102D78003A4B4FF080521A60BFF34F8FBFF36F8FFB
:102D880000F076FC012363E07B68002B03D100F0A0
:102D98006FFC00235CE07B6A002B06D107F114036B
:102DA8001846FFF77BFC01237B6200F061FCFFF70C
:102DB800E7F900F033FC3B6A93F844305BB2B3F1B7
:102DC800FF3F03D13B6A002283F844203B6A93F813
:102DD80045305BB2B3F1FF3F03D13B6A002283F871
:102DE800452000F045FC3A1D07F11403114618462A
:102DF800FFF76AFC0346002B24D1386A00F084FAF6
:102E08000346002B18D03B6A10337A6811461846DF
:102E1800FFF79EFB386A00F00FFAFFF7BFF9034689
:102E2800002B7FF47CAF0D4B4FF080521A60BFF33C
:102E38004F8FBFF36F8F72E7386A00F0FDF9FFF725
:102E4800ADF96CE7386A00F0F7F9FFF7A7F9002346
:102E580018462837BD4680BD4C75000804ED00E0D3
:102E680080B58CB000AFF860B9607A603B60FB68F1
:102E7800BB62BB6A002B04D13E494FF46F7003F06C
:102E8800E0F9BB68002B03D1BB6A1B6C002B01D196
:102E9800012300E00023002B04D1364940F2BD3065
:102EA80003F0CFF93B68022B03D1BB6ADB6B012B24
:102EB80001D1012300E00023002B04D12D4940F269
:102EC800BE3003F0BEF900F071FCEFF311824FF051
:102ED800500383F31188BFF36F8FBFF34F8FBA612D
:102EE8007B61BB697B62BB6A9A6BBB6ADB6B9A428C
:102EF80002D33B68022B2FD1BB6A93F8453087F881
:102F08002330BB6A9B6BFB613A68B968B86A00F00A
:102F180003F997F92330B3F1FF3F12D1BB6A5B6A1B
:102F2800002B16D0BB6A24331846FFF759FB03461B
:102F3800002B0ED07B68002B0BD07B6801221A6017
:102F480007E097F823300133DBB25AB2BB6A83F843
:102F580045200123FB6201E00023FB627B6A3B61A1
:102F68003B6983F3118800BFFB6A18463037BD46BA
:102F780080BD00BF4C75000880B58AB000AFF8600E
:102F8800B9607A6000237B62FB683B623B6A002B76
:102F980004D15F4940F2045003F053F9BB68002B99
:102FA80003D13B6A1B6C002B01D1012300E00023F5
:102FB800002B04D156494FF4A16003F042F9FFF702
:102FC800ADFC0346002B02D17B68002B01D1012305
:102FD80000E00023002B04D14D4940F20D5003F0CE
:102FE80030F900F01BFB3B6A9B6BFB61FB69002B14
:102FF8001FD0B968386A00F0F9F8FB695A1E3B6AB5
:103008009A633B6A1B69002B0FD03B6A1033184642
:10301800FFF7E6FA0346002B07D03E4B4FF08052ED
:103028001A60BFF34F8FBFF36F8F00F021FB0123AE
:1030380069E07B68002B03D100F01AFB002362E0F3
:103048007B6A002B06D107F114031846FFF726FB0D
:1030580001237B6200F00CFBFFF792F800F0DEFA28
:103068003B6A93F844305BB2B3F1FF3F03D13B6A4C
:10307800002283F844203B6A93F845305BB2B3F1F1
:10308800FF3F03D13B6A002283F8452000F0F0FAA5
:103098003A1D07F1140311461846FFF715FB0346BE
:1030A800002B23D1386A00F019F90346002B17D0FA
:1030B8003B6A24337A6811461846FFF749FA386A9A
:1030C80000F0BAF8FFF76AF80346002B89D1114BD4
:1030D8004FF080521A60BFF34F8FBFF36F8F80E7B6
:1030E800386A00F0A9F8FFF759F87AE7386A00F06B
:1030F800A3F8FFF753F8386A00F0F0F80346002BFE
:103108003FF46FAF002318462837BD4680BD00BF87
:103118004C75000804ED00E080B586B000AFF8609B
:10312800B9607A6000237B61FB689B6B3B61FB683D
:103138001B6C002B0DD1FB681B68002B4DD1FB6865
:103148009B681846FFF708FC7861FB6800229A60C4
:1031580043E07B68002B19D1FB685868FB681B6C3F
:103168001A46B96803F0B4FEFB685A68FB681B6C22
:103178001A44FB685A60FB685A68FB689B689A4265
:103188002BD3FB681A68FB685A6026E0FB68D8688E
:10319800FB681B6C1A46B96803F09AFEFB68DA688C
:1031A800FB681B6C5B421A44FB68DA60FB68DA68F0
:1031B800FB681B689A4207D2FB689A68FB681B6C1D
:1031C8005B421A44FB68DA607B68022B05D13B69D5
:1031D800002B02D03B69013B3B613B695A1CFB68F1
:1031E8009A637B6918461837BD4680BD80B582B0A2
:1031F80000AF786039607B681B6C002B18D07B6847
:10320800DA687B681B6C1A447B68DA607B68DA686A
:103218007B689B689A4203D37B681A687B68DA608C
:103228007B68D9687B681B6C1A46386803F050FEC7
:1032380000BF0837BD4680BD80B584B000AF786058
:1032480000F0ECF97B6893F84530FB7311E07B687C
:103258005B6A002B12D07B6824331846FFF7C0F94D
:103268000346002B01D0FFF787FAFB7B013BDBB25B
:10327800FB7397F90F30002BE9DC00E000BF7B6897
:10328800FF2283F8452000F0F3F900F0C7F97B68C6
:1032980093F84430BB7311E07B681B69002B12D094
:1032A8007B6810331846FFF79BF90346002B01D0C3
:1032B800FFF762FABB7B013BDBB2BB7397F90E30B9
:1032C800002BE9DC00E000BF7B68FF2283F8442084
:1032D80000F0CEF900BF1037BD4680BD80B584B080
:1032E80000AF786000F09AF97B689B6B002B02D1E5
:1032F8000123FB6001E00023FB6000F0B9F9FB68E3
:1033080018461037BD4680BD80B584B000AF7860E0
:1033180000F084F97B689A6B7B68DB6B9A4202D178
:103328000123FB6001E00023FB6000F0A1F9FB68CA
:1033380018461037BD4680BD80B485B000AF7860B0
:1033480039600023FB6014E00F4AFB6852F8333001
:10335800002B0BD10C49FB683A6841F833200A4A24
:10336800FB68DB0013447A685A6006E0FB680133A7
:10337800FB60FB68042BE7D900BF00BF1437BD46CC
:103388005DF8047B704700BF743D002080B586B0AF
:1033980000AFF860B9607A60FB687B6100F03EF9C5
:1033A8007B6993F844305BB2B3F1FF3F03D17B698B
:1033B800002283F844207B6993F845305BB2B3F16F
:1033C800FF3F03D17B69002283F8452000F050F9C4
:1033D8007B699B6B002B06D17B6924337A68B968BB
:1033E8001846FFF7D5F87869FFF726FF00BF1837AA
:1033F800BD4680BD80B485B000AFF860B9607A6022
:10340800FB68043BFB60FB684FF080721A60FB6846
:10341800043BFB60BB6823F00102FB681A60FB6891
:10342800043BFB600C4AFB681A60FB68143BFB60BA
:103438007A68FB681A60FB68043BFB60FB686FF006
:1034480002021A60FB68203BFB60FB6818461437D1
:10345800BD465DF8047B70476534000880B582B0CE
:1034680000AF00233B600E4B1B68B3F1FF3F03D056
:103478000C49E32002F0E5FE4FF0500383F3118876
:10348800BFF36F8FBFF34F8F7B6000BF00BF3B68F8
:10349800002BFCD000BF00BF0837BD4680BD00BF71
:1034A8000000002064750008074B19680868B0E838
:1034B800F04F80F30988BFF36F8F4FF0000080F35F
:1034C80011887047AFF30080643C002000BF00BF44
:1034D80008480068006880F308884FF0000080F30F
:1034E800148862B661B6BFF34F8FBFF36F8F00DFEA
:1034F80000BF00BF08ED00E080B584B000AF3D4BD1
:103508001B683D4A934204D13C494FF4947002F041
:1035180098FE384B1B683A4A934204D1374940F227
:10352800291002F08EFE374BFB60FB681B78DBB27C
:10353800BB60FB68FF221A70FB681B78DBB2FB716B
:10354800FB79DBB203F05003DAB22F4B1A702F4B22
:1035580007221A6009E02D4B1B68013B2B4A1360B8
:10356800FB79DBB25B00DBB2FB71FB79DBB203F00A
:103578008003802BEFD0254B1B68C3F10703042B76
:1035880004D01E494FF4AD7002F05BFE1F4B1B6860
:103598001B021E4A13601D4B1B6803F4E0631B4AA1
:1035A8001360BB68DAB2FB681A70194B1B68184ABB
:1035B80043F470031360164B1B68154A43F07043BD
:1035C800136000F0CFF8134B00221A6000F0E4F803
:1035D800114B1B68104A43F040431360FFF778FF14
:1035E800FEF738FFFFF73AFF002318461037BD46AD
:1035F80080BD00BF00ED00E071C20F416475000896
:1036080070C20F4100E400E0683D00206C3D0020DE
:1036180020ED00E00000002034EF00E080B582B02B
:1036280000AF4FF0500383F31188BFF36F8FBFF3E0
:103638004F8F7B6000BF0B4B1B680133094A136037
:10364800084B1B68012B09D1074B1B68DBB2002B09
:1036580004D0064940F29F1002F0F3FD00BF08377E
:10366800BD4680BD0000002004ED00E06475000840
:1036780080B582B000AF0E4B1B68002B04D10D49FA
:103688004FF4D37002F0DDFD094B1B68013B084A7B
:103698001360074B1B68002B05D100237B607B68F8
:1036A80083F3118800BF00BF0837BD4680BD00BF47
:1036B8000000002064750008EFF30980BFF36F8FE6
:1036C800154B1A681EF0100F08BF20ED108A20E96C
:1036D800F04F10602DE909004FF0500080F3118879
:1036E800BFF34F8FBFF36F8FFEF7B4FE4FF00000AC
:1036F80080F3118809BC19680868B0E8F04F1EF01B
:10370800100F08BFB0EC108A80F30988BFF36F8FE1
:10371800704700BFAFF30080643C002000BF00BFCB
:1037280080B582B000AF4FF0500383F31188BFF328
:103738006F8FBFF34F8F7B6000BFFEF7D7FD034647
:10374800002B03D0064B4FF080521A6000233B60D9
:103758003B6883F3118800BF00BF0837BD4680BDB2
:1037680004ED00E080B400AF084B00221A60084B5B
:1037780000221A60074B41F267021A60034B0722C6
:103788001A6000BFBD465DF8047B704710E000E09A
:1037980018E000E014E000E0DFF80C00016841F4F4
:1037A80070010160704700BF88ED00E080B582B00D
:1037B80000AFEFF305837B607B680F2B0ED9104AAF
:1037C8007B6813441B78FB700E4B1B78FA789A427F
:1037D80004D20D4940F2F22002F033FD0B4B1B6876
:1037E80003F4E0620A4B1B689A4204D9064940F286
:1037F800023002F026FD00BF0837BD4680BD00BF7D
:10380800F0E300E0683D0020647500080CED00E07E
:103818006C3D002080B500AFFEF768FC00BF80BD9E
:1038280080B582B000AF78607868FDF7E9FC0346A0
:1038380018460837BD4680BD80B582B000AF7860B5
:103848007868FDF797FD00BF0837BD4680BD80B595
:1038580082B000AF78607868FEF718FC00BF0837C0
:10386800BD4680BD80B400AF01231846BD465DF853
:10387800047B704780B58CB002AFF860B9607A609D
:10388800FB7000233B6107F1140300221A605A60A1
:103898009A6000237B620FE07B6A7A681344197888
:1038A80007F110027B6A13440A461A707B6A0F2BD1
:1038B80007D07B6A01337B62FB787A6A9A42EBDB3A
:1038C80000E000BF3A8E07F11001BB6B01937B6BE0
:1038D8000093BB68F868FEF711FA38623B6A012B5F
:1038E80001D0012307E0BB6B002B03D10449CE2094
:1038F80002F0A7FC002318462837BD4680BD00BF4C
:103908009475000880B582B000AF78607868FEF7DB
:1039180031FB00BF0837BD4680BD80B500AFFEF75C
:10392800EDFF0346184680BD7047704770477047E3
:1039380070477047704770477047704770477047C7
:10394800704770477047704780B56F4684B00091E4
:103958000146009801910290039203F06CFA04B0BA
:1039680080BD80B56F4600F058FBFFE780BD80B58D
:103978006F4684B00290039100F007F80190FFE7CA
:10398800019800F0010004B080BD80B56F4694B086
:1039980003900491119000F065F807910690FFE7F5
:1039A8000698029030B1FFE7029801280DD0FFE792
:1039B80016E0FEDE079808900498099008A809A95F
:1039C80000F004FA07F8390C14E007980A900498F4
:1039D8000B900AA80BA900F0E9F907F8390C08E0E0
:1039E800012007F8390CFFE717F8390CC00730B980
:1039F80001E0F9E7F8E7002007F83A0C2EE0039811
:103A080000F039F80E910D90FFE70D98019030B154
:103A1800FFE7019801280CD0FFE714E0FEDE0E98BE
:103A280013900F9004A80FA900F0D0F907F81D0C07
:103A380013E00E981290109004A810A900F0B6F99F
:103A480007F81D0C08E0012007F81D0CFFE717F820
:103A58001D0C07F83A0C01E0F9E7F8E717F83A0CFB
:103A680014B080BD83B002900190002000900098AF
:103A7800019903B0704784B000900390007AC007A2
:103A880030B9FFE70098043002900020019005E06B
:103A980000980430029001200190FFE701980299F4
:103AA80004B0704780B56F4682B0009007F8011CDB
:103AB800002200F0CBF8FFE702B080BD80B56F466A
:103AC80082B0009007F8011C012200F0BFF8FFE760
:103AD80002B080BD80B56F4682B0009007F8011C27
:103AE800012200F003F8FFE702B080BD80B56F4601
:103AF80090B0134607930B4608930C9007F80A1CDE
:103B080007F8092C0A9047F2DC50C0F600000AA911
:103B1800FFF72DFF0990FFE70998C00728B1FFE7D5
:103B28000898C0B21F2819D80BE047F2E850C0F631
:103B3800000047F28C62C0F60002492102F097FCAF
:103B4800FEDE0898C0B2014605910E900A98A0F1D1
:103B580080410691B0F1804F12D30BE047F29C6090
:103B6800C0F6000047F2B862C0F600021A2102F05F
:103B78007EFCFEDE06984101C00E0491A0B90BE060
:103B880047F2E060C0F6000047F2C862C0F60002E3
:103B9800212102F06CFCFEDE049901F1844002460A
:103BA8000392884212D30BE047F21070C0F600006F
:103BB80047F2C862C0F60002212102F058FCFEDE7E
:103BC80005988100800F0291A0B90BE047F2507070
:103BD800C0F6000047F23472C0F600021C2102F061
:103BE80046FCFEDE03990298084402460192884288
:103BF80013D30BE047F21070C0F6000047F26C7266
:103C0800C0F60002212102F032FCFEDE079801997D
:103C18000F910091C00778B90BE047F25070C0F6D9
:103C2800000047F23472C0F600021C2102F01FFCAB
:103C3800FEDE00200B9002E001200B90FFE70098C9
:103C48000B9900F0DDF9FFE710B080BD80B56F4635
:103C580090B0134607930B4608930C9007F80A1C7C
:103C680007F8092C0A9047F2DC50C0F600000AA9B0
:103C7800FFF77DFE0990FFE70998C00728B1FFE725
:103C88000898C0B21F2819D80BE047F2E850C0F6D0
:103C9800000047F28C62C0F60002492102F0E7FBFF
:103CA800FEDE0898C0B2014605910E900A98A0F170
:103CB80080410691B0F1804F12D30BE047F29C602F
:103CC800C0F6000047F2B862C0F600021A2102F0FE
:103CD800CEFBFEDE06984101C00E0491A0B90BE0B0
:103CE80047F2E060C0F6000047F2C862C0F6000282
:103CF800212102F0BCFBFEDE049901F1844002465A
:103D08000392884212D30BE047F21070C0F600000D
:103D180047F2C862C0F60002212102F0A8FBFEDECD
:103D280005988100800F0291A0B90BE047F250700E
:103D3800C0F6000047F23472C0F600021C2102F0FF
:103D480096FBFEDE039902980844024601928842D7
:103D580013D30BE047F21070C0F6000047F26C7204
:103D6800C0F60002212102F082FBFEDE07980199CD
:103D78000F910091C00778B90BE047F25070C0F678
:103D8800000047F23472C0F600021C2102F06FFBFB
:103D9800FEDE00200B9002E001200B90FFE7009868
:103DA8000B9900F02DF9FFE710B080BD80B56F4684
:103DB80084B0029003910068096800F017F8019038
:103DC800FFE7019800F0010004B080BD80B56F46A0
:103DD80084B0029003910068096800F015F801901A
:103DE800FFE7019800F0010004B080BD83B00091A6
:103DF80001460098019102900968026800209142EA
:103E080038BF012003B0704783B000910146009885
:103E180001910290096802680020914298BF012030
:103E280003B0704780B56F468AB0FFE743F60000DD
:103E3800C4F2020004900590069043F63000C4F2E4
:103E480002000221FFF746FEFFF78BFDFFE743F66E
:103E58000000C4F2020000900790099043F6100099
:103E6800C4F20200019002210291FFF727FE009A96
:103E7800019802990892FFF715FEFFE7FFF755FD35
:103E8800FFE7FFF760FDFFE7FFF753FDFFE7FFF7E9
:103E980059FDFFE7FFF750FDFFE7FFF74CFDFFE790
:103EA800FFF74EFDFFE7FFF745FDFFE7FFF73FFD93
:103EB800FFE7FFF73DFDFFE7FFF736FDFFE7FFF7F9
:103EC80035FDFFE7FFF739FDFFE7FFF738FDFFE7AF
:103ED800FFF734FDFFE7FFF734FDFFE70AB080BDC9
:103EE80080B56F4684B0019002910198029900F064
:103EF80005F80090FFE7009804B080BD85B00091F8
:103F080001900390049100680968884207D3FFE78D
:103F1800009901980068096888420CD007E0FF20E2
:103F28008DF80B00FFE79DF80B0005B070470120E6
:103F38008DF80B0003E000208DF80B00FFE7F2E797
:103F480080B56F4684B00290039100F011F801909B
:103F5800FFE7019804B080BD80B56F4684B0029039
:103F68000391FFF7EDFF0190FFE7019804B080BDD2
:103F780080B56F4688B000900191002007F8050CC5
:103F880007F8060C012007F8050C07F8060C684628
:103F9800049001A8059004980599FFF7A1FF07F878
:103FA800110CFFE717F8111C481CC0B2022802D3F5
:103FB800FFE706E0FEDE002007F8050C00980290F7
:103FC80005E0002007F8060C01980290FFE717F8B3
:103FD800060CC00728B9FFE717F8050CC00720B979
:103FE80000E0F9E7029808B080BDFBE783B00190D4
:103FF8000068029002980090FFE7009803B07047AD
:1040080082B0009001910160FFE702B0704700BEE6
:10401800704772B6704762B67047BFF34F8F7047EC
:10402800EFF310807047704785B0009000208DF83E
:104038000B0001208DF80B0000980028014618BFDE
:10404800012110B1FFE705E0FEDE00208DF80B002E
:10405800019003E0009804900190FFE79DF80B00A1
:10406800C00718B9FFE7019805B07047FBE787B0AC
:104078000090019100208DF8130001208DF81300A5
:10408800009810B1FFE706E0FEDE00208DF813006F
:104098000120029005E0019806900390002002900C
:1040A800FFE79DF81300C00720B9FFE702980399BE
:1040B80007B07047FAE789B0009301900998029019
:1040C800039104920693079000208DF817000120B1
:1040D8008DF81700039810B1FFE70BE0FEDE019999
:1040E8000298009A00238DF817304A6088600120F2
:1040F800086006E00199049808904860002008606C
:10410800FFE79DF81700C00710B9FFE709B070472F
:10411800FCE780B56F468CB0039304900591069236
:104128000893002007F8110C012007F8110C0598D6
:10413800B0FA80F1490910B9FFE70AE0FEDE0499F8
:10414800059A06980A920B904A60886000200860D9
:1041580010E00398002107F8111C01F0A8F801905D
:104168000291FFE704990298019A4A608860012049
:104178000860FFE717F8110CC00710B9FFE70CB08B
:1041880080BDFCE780B56F468CB003910490002099
:1041980007F8110C012007F8110C086810B1FFE7A7
:1041A80004E0FEDE04990020086018E003984168E6
:1041B80080680A910B90002207F8112C059106904F
:1041C8000598069901F086F801900291FFE7049995
:1041D8000298019A4A60886001200860FFE717F892
:1041E800110CC00710B9FFE70CB080BDFCE780B523
:1041F8006F468AB0029003910492002007F8110CD0
:10420800012007F8110C0498B0FA80F1490910B997
:10421800FFE70AE0FEDE0299039A049808920990E3
:104228004A608860002008600FE0002007F8110C41
:1042380001F034F800900191FFE702990198009A83
:104248004A60886001200860FFE717F8110CC00772
:1042580010B9FFE70AB080BDFCE780B56F4686B0AD
:104268000292039104900978C80710B1FFE70AE0A9
:10427800FEDE0499039B58689A68DB688B604A6085
:10428800086006B080BD02980399497807F8011CB8
:104298006946086047F27C70C0F6000047F2A873D0
:1042A800C0F600032B217A1E02F00CF9FEDE88B05E
:1042B80000910190086810B1FFE70BE0FEDE01995C
:1042C800009842688068069207904A6088600020DB
:1042D80008600EE001990098426880680492059091
:1042E80002920390029A03984A608860012008604D
:1042F800FFE708B0704788B000910190086810B1D6
:10430800FFE70BE0FEDE019900984268806806929C
:1043180007904A608860002008600EE001990098C4
:10432800426880680492059002920390029A03986A
:104338004A60886001200860FFE708B0704788B0CD
:10434800009001910098B0FA80F1490910B9FFE78F
:1043580007E0FEDE0099019806910790029103900C
:1043680004E00020039002900290FFE7029803996E
:1043780008B0704787B000910190086810B1FFE756
:1043880008E0FEDE01990098406806904860002029
:1043980008600EE0019900984268806804920590D0
:1043A80002920390029A03984A608860012008608C
:1043B800FFE707B0704787B000910190086810B117
:1043C800FFE704E0FEDE0199002008600EE0019995
:1043D8000098426880680592069002920390029ABB
:1043E80003984A60886001200860FFE707B07047BB
:1043F80085B000900098B0FA80F1490910B9FFE73C
:1044080004E0FEDE00980490019002E00020019094
:10441800FFE7019805B0704787B0009001910098B8
:1044280010B1FFE706E0FEDE019806900390002039
:10443800029002E001200290FFE70298039907B07A
:10444800704780B56F4688B0019004910592049832
:1044580005990690079100F083FB02900391FFE70E
:1044680001990398029A4A6088600120086008B0A0
:1044780080BD80B56F4684B000F05FF8FFE700208C
:104488000190009000900098019904B080BD80B51B
:104498006F4688B00190049105920498059906909A
:1044A800079101F062FA02900391FFE701990398DE
:1044B800029A4A6088600120086008B080BD80B513
:1044C8006F4688B00190049105920498059906906A
:1044D800079100F045FB02900391FFE701990398CB
:1044E800029A4A6088600120086008B080BD80B5E3
:1044F8006F4684B000F0D7FBFFE7002001900090E2
:1045080001900098019904B080BD80B56F4688B0CD
:10451800019004910592049805990690079101F07D
:1045280024FA02900391FFE701990398029A4A60DE
:1045380088600120086008B080BD81B001B0704774
:1045480082B001900090009802B0704784B0029049
:104558000391009001910098019904B0704780B5CB
:104568006F4686B00290059000F07AFB0390FFE753
:104578000398C00718B1FFE70020049007E00298ED
:10458800FFF7DEFF0190FFE701980490FFE704982A
:1045980006B080BD81B0009001B0704782B0009035
:1045A800019102B0704780B56F4684B002900391C4
:1045B800FFF7F4FF0190FFE70198FFF7C1FF0090B4
:1045C800FFE7009804B080BD80B56F4688B00491BD
:1045D80006900791FFF7DEFF0590FFE7049905981D
:1045E80000F0B8FB02900391FFE703990298FFF7E8
:1045F800ADFF00900191FFE70199009808B080BDD8
:1046080080B56F4688B004900591FFF7C7FF029008
:104618000391FFE702980399069007910190FFE73D
:104628000198FFF78DFF0090FFE7009808B080BD64
:1046380080B56F4684B002900391FFF7E1FF0190C7
:10464800FFE70198FFF7A6FF0090FFE7009804B086
:1046580080BD80B56F4684B0039001F0B6F8029033
:10466800FFE70298FFF76CFF0190FFE7019804B09D
:1046780080BD81B00090007801B0704780B56F466A
:1046880088B0019005900691079202A801F0FDF804
:10469800FFE7019800F034F9FFE701980299039ABF
:1046A800049B83604260016008B080BD82B00090C6
:1046B800ADF80610818102B0704782B000908DF885
:1046C8000710817302B0704780B56F4684B00090C0
:1046D80047F2B871C0F6000101A8092201F0D5F827
:1046E800FFE700990198029A039B8B604A60086073
:1046F8004FF4806088810120887304B080BDD0B5F4
:1047080002AFACB00B939446CDF830C00F910E9029
:10471800D7F80CE0BA680D9207F875EC1890199163
:10472800CDF868C01B9327F8462C249025910820C3
:10473800042101F076FB0E9A0F99026041601390F4
:10474800FFE70B980C99139A08921D9228912990CB
:104758002A912B902A9909912B980A901E911F90C3
:10476800FFE70A98209000F089FF2690279016907E
:10477800FFE70A99099800F06EFA0790FFE70A9890
:104788000590A7F17500FFF774FF0690FFE7079AF9
:10479800089905980D9BDDF818E0EC4616ACCCF8A6
:1047A8000840CCF804E09BB2CCF80030C3B244F621
:1047B8002500C0F60000FFF75DF80146049121903E
:1047C800FFE70498B0FA80F0410916988DF8501068
:1047D80015909DF8500007F82D0C15990391239119
:1047E800C00750B9FFE700208DF8450001208DF87B
:1047F800440013A800F074F80FE0139801F0B7FD17
:10480800FFE7039817901798129000208DF844003E
:10481800FFE7119812992CB0D0BDFAE780B56F4622
:1048280086B0049000F0AEFD014601910590FFE7C7
:10483800FFF773F80090FFE7019800990391039937
:104848000291029900F0B6FDFFE70020FFF75AF841
:10485800FFE7002006B080BD80B56F46FEF7DAFF9F
:10486800FEDE80B56F4682B0684600F0A6F8FFE726
:10487800FFE702B080BD80B56F4684B00190029119
:104888000198029901F037FD0090FFE7009804B005
:1048980080BD80B56F4682B000900190006828B94D
:1048A800FFE70098043000F02BF804E0009804308B
:1048B80000F03DF8FFE702B080BD80B56F4682B0DA
:1048C8000146009101910868496809688847FFE72F
:1048D80000990868496800F0E7FEFFE702B080BD6C
:1048E80080B56F4682B0009001900068FFF7E5FF41
:1048F800FFE70098006800F014FFFFE702B080BDF2
:1049080080B56F4682B0019000F003F8FFE702B06F
:1049180080BD80B56F4682B00090019000F03BF8F2
:10492800FFE7009800F00CF8FFE702B080BD80B503
:104938006F4682B00190FFF7ECFFFFE702B080BD41
:1049480080B56F4682B0019000F00BF8FFE702B027
:1049580080BD81B0009001B0704781B0009001B077
:10496800704780B56F4688B001460091049101A850
:1049780000F0E4FAFFE7019850B1FFE700980199C9
:104988000591029A039B0692079301F00DFA01E044
:1049980008B080BDFCE780B56F4684B001900390F5
:1049A80000F0FBFD0290FFE702980199896800F08A
:1049B800D1F9FFE7FFE704B080BD81B0009001B0F6
:1049C800704781B0009001B0704780B56F4684B0E1
:1049D80001900291039200F003F8FFE704B080BD54
:1049E80080B56F4684B0009101460098019102900D
:1049F800039202F020FA04B080BD80B56F4684B0FF
:104A080000920A460099019007F8052C0391890045
:104A1800D2B202F017FAFFE704B080BD80B56F4646
:104A280084B000920A460099019007F8052C03917A
:104A3800D2B202F002FAFFE704B080BD80B56F463B
:104A480086B0009104900591039003980078019036
:104A58000199DFE801F006111C27323D48535E69D1
:104A6800FEDE009847F64501C0F600010B2202F071
:104A78000AF807F80D0C62E0009847F2D571C0F605
:104A88000001102201F0FFFF07F80D0C57E0009815
:104A980047F63201C0F60001132201F0F4FF07F8CF
:104AA8000D0C4CE0009847F62601C0F600010C22D8
:104AB80001F0E9FF07F80D0C41E0009847F61F01E7
:104AC800C0F60001072201F0DEFF07F80D0C36E002
:104AD800009847F61601C0F60001092201F0D3FF3D
:104AE80007F80D0C2BE0009847F60101C0F600010D
:104AF800152201F0C8FF07F80D0C20E0009847F2D6
:104B0800F571C0F600010C2201F0BDFF07F80D0C8D
:104B180015E0009847F2E571C0F60001102201F097
:104B2800B2FF07F80D0C0AE0009847F2C171C0F611
:104B38000001142201F0A7FF07F80D0CFFE717F892
:104B48000D0C06B080BD80B56F4684B0039000F0B0
:104B580010F801900291FFE70299019804B080BD16
:104B680084B002900391009001910098019904B0DB
:104B7800704780B56F468AB00790069006984068DF
:104B88000028014618BF012110B1FFE705E0FEDE4D
:104B9800002005900490059012E006980890069968
:104BA8000191099100F046F802900391FFE70198FE
:104BB800FFF7D3FEFFE70398029904910590FFE7FA
:104BC800049805990AB080BD80B56F4688B00191F8
:104BD8000146019802910691079000F032F803907F
:104BE800FFE703980299049105900498059908B085
:104BF80080BD81B00090006801B0704780B56F46F5
:104C080082B00190406800F022F80090FFE7009819
:104C180002B080BD80B56F4684B00390FFF7EEFF09
:104C28000290FFE70298FFF78BFC0190FFE70198DD
:104C380004B080BD81B0014600910868496801B0A0
:104C4800704782B001900090009802B0704781B020
:104C5800009001B0704782B00090019102B0704797
:104C680080B56F4684B002900390FFE70298002158
:104C780000F007F80190FFE7019800F0010004B088
:104C880080BD84B001900291401AB0FA80F04009CA
:104C98008DF80F009DF80F000090FFE7009800F0D6
:104CA800010004B0704781B001B0704780B56F460D
:104CB80090B007900C90FFE70799012001F01BF9CD
:104CC80005900691FFE706990598FFF7D0F903903C
:104CD8000491FFE704990398FFF79EFB0B910A9054
:104CE800FFE70A9810B1FFE705E0FEDE0B98029097
:104CF8000E900F900DE047F6A000C0F60000FFF7F9
:104D0800F6FB09910890FFE7FFE70898099910B0AA
:104D180080BD02980121FFF757FF00900191FFE73E
:104D28000198009908910990EFE780B56F4686B021
:104D3800029104900591FFF744FE0390FFE7029962
:104D4800039801F0FAFA00900191FFE701990098A1
:104D580006B080BD80B56F4688B003910590069176
:104D680007900490FFE70399049801F0F3FA019083
:104D78000291FFE70299019808B080BD83B00091C5
:104D8800014600988DF8070002919DF80700087009
:104D980003B0704789B00190059006910791079874
:104DA8000290FFE70198089008980090FFE70298A2
:104DB8000099039104900398049909B0704789B049
:104DC800019005900691079107980290FFE70198D6
:104DD800089008980090FFE70298009903910490C2
:104DE8000398049909B0704780B56F4684B000F005
:104DF800CFFC0090FFE700980190002002900198F6
:104E0800029904B080BD80B56F4686B00490002139
:104E180007F8091C17F8091C00F007F8019002911F
:104E2800FFE70299019806B080BD80B56F469AB039
:104E3800059007F84D1C1390FFE7012028B9FFE7FC
:104E4800FFF7D2FF099108906BE00598FFF72EFF56
:104E58000D910C90FFE70D98B0FA80F1490910B94F
:104E6800FFE70BE0FEDE0C990D98149115900A915E
:104E78000B900AA8FFF7BDFE049002E001F07EFA4D
:104E8800FEDE04990EA800F05CFAFFE70E9810B158
:104E9800FFE706E0FEDE17F84D1CC80728B1FFE75C
:104EA8000BE001F06BFAFEDEFEDE0A990B9A07A80A
:104EB80000F05AFF129111900FE00A990B9A07A877
:104EC80000F062FF12911190FFE7FFE71198B0FA26
:104ED80080F1490918B9FFE70BE0F7E7FEDE119802
:104EE80012991690179118901991FFF75CFB03908F
:104EF80004E00A980B9901F04FFAFEDE0398FFF7D9
:104F080049FB0290FFE7029800F054FC0190FFE78C
:104F18000598019908910990FFE7089809991AB02E
:104F280080BDFAE780B56F4682B00190006800F056
:104F38004CFC0090FFE7009802B080BD80B56F463A
:104F480090B0059106900B91FFE7012020B9FFE78B
:104F5800012007F8210C07E005984068B0FA80F0B6
:104F6800400907F8210CFFE717F8210CC00718B90A
:104F7800FFE701200C9008E006990020886048604F
:104F880008600860FFE710B080BDFFE7059840683B
:104F98000D900121FFF718FE024603920A4604927B
:104FA8000E900F91FFE70598006800F042FC029010
:104FB800FFE7029800F05EFC0190FFE7069904986D
:104FC800039A019B089309920A900898099A0A9BE8
:104FD8008B604A600860D6E780B56F4686B00A469F
:104FE80001460491059201A8012300F02BF8FFE780
:104FF80001A800F07EF9FFE706B080BD80B56F46D6
:105008008CB0039304920A460499059202460598C7
:105018000692089209900A910B93FFF7C4FA079039
:10502800FFE70798FFF7B6FA0290FFE7029800F04B
:10503800C1FB0190FFE703980699019A0A6048604E
:105048000CB080BD80B56F46B2B00A930B920C913C
:105058000D90219122922393FFE7012058B9FFE791
:1050680000200F900E900F900E980F9900F06FFC93
:105078000890099182E00A990B9800F003FF0690C6
:105088000791FFE7079A0699002017901690179046
:10509800169B1798EC46CCF8000013A8FFF70BF8FE
:1050A800FFE710A813A9FFF765F9FFE7109810B1FB
:1050B800FFE70CE0FEDE0C981199269127914068D5
:1050C800400000F0AEF90146059128900DE00D98DA
:1050D8001199129A2491259247F6FC03C0F6000311
:1050E800FFF7EDF9FFE7FFE742E00599082000F038
:1050F80098F9014604912990FFE70498FFF7D6FD37
:10510800024602920A4603922A902B91FFE70C99D5
:105118001EA8FFF713FFFFE7039A02990C986B4646
:1051280018601BA81EAB00F031F8FFE718A81BA9F0
:10513800FFF7E1F8FFE7189810B1FFE70BE0FEDE94
:10514800049B0C9819991A9A2E912F9230913192AA
:10515800FFF754FF0EE00D9819991A9A2C912D9289
:1051680047F60C13C0F60003FFF791F9FFE7BBE71A
:1051780032B080BD0D9900200860F9E70D990998B3
:10518800089A4A60886001200860F1E7D0B502AF4C
:10519800A4B004930590B86806901A911B920CA8C5
:1051A800FFF725F8FFE709A80CA9FFF780F8FFE744
:1051B800099810B1FFE70BE0FEDE0A990B981F91E2
:1051C80020900791089007A8FFF713FD03900DE0C2
:1051D80005980A990B9A1D911E9247F61C13C0F662
:1051E8000003FFF72EF9FFE7FFE71FE0039912A876
:1051F80000F0A7F8FFE70FA812A9FFF7DCF8FFE710
:105208000F9810B1FFE704E0FEDE0498006878B953
:105218001AE005981099119A2191229247F62C13B9
:10522800C0F60003FFF771F9FFE7DEE724B0D0BD51
:105238000498016802912391416880681791189039
:1052480017A8FFF7DBFC11E006980799089A00F009
:105258008BFD16911590FFE7FFE705981599169AAB
:1052680007AB1993199BFEF754FF16E007A8FFF741
:10527800C5FCFFE7FFE702990698179A189BDDF827
:105288001CC0089CEE46CEF80440CEF800C000F0E2
:10529800AAFD16911590FFE7DFE7C7E784B0002065
:1052A8000190009001900098019904B0704780B572
:1052B8006F4686B004900168406802910390029896
:1052C800039900F044FB00900191FFE701990098D1
:1052D80006B080BD80B56F4686B00390049103A8E0
:1052E800FFF731FC01900291FFE70299019806B09F
:1052F80080BD80B56F4688B00246106851689268D4
:10530800059204910390684603A9FEF73BFFFFE767
:10531800009810B1FFE702E0FEDE08B080BD0298F9
:105328000028014618BF012108B1FFE702E001F09B
:1053380025F8FEDE019802990690079101F02CF8F5
:10534800FEDE80B56F4686B002900591002904D430
:10535800FFE702990020086012E000200490039003
:1053680004900398049900F0F2FA00900191FFE785
:1053780002990198009A4A60886001200860FFE756
:1053880006B080BD80B56F4682B0019000F005F888
:105398000090FFE7009802B080BD80B56F4684B0EA
:1053A800029000F001FA0090FFE700980190019840
:1053B80004B080BD80B56F4684B000910146009866
:1053C800019102900391029A0868496800F007F871
:1053D800FFE7019800F0A5F9FFE704B080BD80B5AC
:1053E8006F4686B000920A46009901920290039196
:1053F800049005920399D2689047FFE701990298B3
:1054080000F052F9FFE706B080BD80B56F4684B062
:105418000290039100F011F80190FFE7019804B0A1
:1054280080BD80B56F4684B002900391FFF7EDFF11
:105438000190FFE7019804B080BD80B56F4688B041
:1054480000900191002007F8050C07F8060C0120D0
:1054580007F8050C07F8060C6846049001A80590A3
:1054680004980599FFF707FA07F8110CFFE717F8F2
:10547800111C481CC0B2022802D3FFE706E0FEDE7A
:10548800002007F8060C0198029005E0002007F8B4
:10549800050C00980290FFE717F8060CC00728B91A
:1054A800FFE717F8050CC00720B900E0F9E70298F4
:1054B80008B080BDFBE780B56F4686B002910390C7
:1054C8000490059100F00CF8FFE702990398FFF7A4
:1054D8002CFC00900191FFE70199009806B080BD6F
:1054E80082B00090019102B0704780B56F4686B0D7
:1054F80002910392049002A8FFF77BFB0190FFE75B
:105508000198FEF78DF9014600910590FFE7009894
:1055180006B080BD80B56F4686B0019101460198FE
:105528000291039004920593FEF786F9FFE706B00F
:1055380080BD014647F63C10C0F60000026840688E
:105548000A60486000208860704780B56F4686B062
:1055580000910146009801910490FFF754FC0290D5
:105568000391FFE701990398029A0A6048600020B6
:10557800886006B080BD80B56F4684B00290FFF7A2
:10558800D1FC014601910390FFE70198FFF768FB02
:10559800FFE7FFE7019804B080BD80B56F4684B08F
:1055A8000290FFF7BFFC014601910390FFE70198C5
:1055B800FFF756FBFFE7FFE7019804B080BD82B014
:1055C80000900191816002B0704780B56F4692B03B
:1055D80004900A460592089007F8211C81680691F4
:1055E800014607910C90012020B9FFE74FF0FF30EA
:1055F8000B9003E0079840680B90FFE70B98039027
:10560800FFE706980399884205D0FFE70498FFF75B
:10561800C4FF029005E004988168FFF7DDFCFFE70E
:10562800F4E70298049989680D900E910F901091F3
:1056380008441190119801900A90FFE70599019884
:10564800FFF79CFBFFE7049988680130886012B077
:1056580080BD80B56F4686B003900590FFF78BFF3D
:105668000490FFE7049803998968FFF724FF0190E5
:105678000291FFE70299019806B080BD80B56F4698
:1056880086B001980090FFE768460290FFE76846F9
:105698000390002107F8051C01220592FFF7ADF9D8
:1056A800FFE7009806B080BD80B56F4692B00990BC
:1056B8000A9109A800F09DF80891FFE7089840684A
:1056C8000C900C9807900D90FFE709A800F091F84E
:1056D8000691FFE7069880680E900E9805900F9047
:1056E800FFE705990798FFF76FFA024603920A4603
:1056F800049210901191FFE709980A9900F0A9F80F
:105708000290FFE7029800F0B5F80190FFE7049BCC
:10571800039A01990BA800F047FBFFE7FFE712B0D7
:1057280080BD80B56F468EB0069006A800F055F88B
:10573800FFE708200890089805900990FFE706A859
:1057480000F04BF8FFE704200A900A9804900B90A9
:10575800FFE704990598FFF737FA024602920A46CE
:1057680003920C900D91FFE7069800F052F8019013
:10577800FFE7019800F07EF80090FFE7039B029A8C
:10578800009907A800F010FBFFE7FFE70EB080BD07
:1057980080B56F4682B0FFE7012000F00BF801905A
:1057A800FFE7019802B080BD82B001900090009898
:1057B80002B0704782B001900090009802B0704724
:1057C80082B00090019102B0704781B0009001B0A2
:1057D800704781B0009001B0704780B56F4682B0C5
:1057E80001900068FFF7F5FF0090FFE7009802B00E
:1057F80080BD80B56F4684B001460391086849684A
:10580800FFF7DEFF01900291FFE70299019804B0CB
:1058180080BD80B56F4684B00390FFF7DAFF029031
:10582800FFE70298FFF7C6FF0190FFE7019804B071
:1058380080BD80B56F4684B00390FFF7C6FF029025
:10584800FFE70298FFF7B6FF0190FFE7019804B061
:1058580080BD80B56F4684B002900391FFF7B0FF1A
:105868000190FFE70198FFF7A5FF0090FFE7009878
:1058780004B080BD80B56F4682B00190FEF7E9FEA6
:105888000090FFE7009802B080BD80B56F4682B0F7
:105898000091019200F041FCFFE702B080BD80B5A5
:1058A8006F469AB001910290169103A8FFF741FE46
:1058B800FFE701980690FFE70698007858B9FFE7D8
:1058C80003980499059A0F920E910D9007A80DA9B7
:1058D80000F094FB11E00698017803A8FFF775FE25
:1058E800FFE706981790012118910130199019982F
:1058F8000090FFE700980690DEE7079810B1FFE7F1
:1059080016E0FEDE02990898099A0A9B12931192F2
:1059180010901098119A129B159314921390139843
:10592800149A159BCB608A6048600020087005E0D7
:1059380002990620487001200870FFE7079810B9FF
:10594800FFE71AB080BD07A8FEF7A3FFF9E780B507
:105958006F4684B002900391FFF702F9009001911D
:10596800FFE70199009804B080BD82B000900191D2
:1059780002B0704780B56F4684B00190039000F084
:105988004DFC0290FFE7029840B1FFE701980299A9
:10599800B0FBF1F000F011F800900BE047F6701042
:1059A800C0F6000047F66012C0F60002192100F0A8
:1059B8005EFDFEDE009804B080BD82B001900090CC
:1059C800009802B0704781B00090006801B070473D
:1059D80080B56F4686B00490059104A8FFF709F9D1
:1059E8000390FFE704A8FFF709F90290FFE702997F
:1059F8000398FBF7FBFB0190FFE7019806B080BD19
:105A080080B56F4686B0019003910492059003A873
:105A1800FFF7EFF80290FFE703A8FFF7EFF8009011
:105A2800FFE7009A02990198FBF7E2FBFFE706B04F
:105A380080BD80B56F468AB00393049006910792A3
:105A48000890099306A8FFF7D4F80590FFE706A881
:105A5800FFF7D4F80290FFE7039B029A0599049890
:105A6800FBF7C8FB0190FFE701980AB080BD80B53D
:105A78006F4686B00490059104A8FFF7BAF8039022
:105A8800FFE704A8FFF7BAF80290FFE70299039826
:105A9800FBF7B2FB0190FFE7019806B080BD80B527
:105AA8006F4696B09C46CDF820C00A910B92109094
:105AB80007F8113C0AA8FFF79CF80990FFE7099836
:105AC80028B9FFE70AA8FFF7A5F8079047E0089864
